{
  "contractName": "Lottery",
  "abi": [
    {
      "inputs": [],
      "stateMutability": "nonpayable",
      "type": "constructor"
    },
    {
      "inputs": [],
      "name": "manager",
      "outputs": [
        {
          "internalType": "address",
          "name": "",
          "type": "address"
        }
      ],
      "stateMutability": "view",
      "type": "function",
      "constant": true
    },
    {
      "inputs": [
        {
          "internalType": "uint256",
          "name": "",
          "type": "uint256"
        }
      ],
      "name": "participant",
      "outputs": [
        {
          "internalType": "address",
          "name": "",
          "type": "address"
        }
      ],
      "stateMutability": "view",
      "type": "function",
      "constant": true
    },
    {
      "inputs": [],
      "name": "winner",
      "outputs": [
        {
          "internalType": "address",
          "name": "",
          "type": "address"
        }
      ],
      "stateMutability": "view",
      "type": "function",
      "constant": true
    },
    {
      "stateMutability": "payable",
      "type": "receive",
      "payable": true
    },
    {
      "inputs": [],
      "name": "lotterypart",
      "outputs": [],
      "stateMutability": "payable",
      "type": "function",
      "payable": true
    },
    {
      "inputs": [],
      "name": "balance",
      "outputs": [
        {
          "internalType": "uint256",
          "name": "",
          "type": "uint256"
        }
      ],
      "stateMutability": "view",
      "type": "function",
      "constant": true
    },
    {
      "inputs": [],
      "name": "pikwinner",
      "outputs": [
        {
          "internalType": "address",
          "name": "",
          "type": "address"
        }
      ],
      "stateMutability": "nonpayable",
      "type": "function"
    }
  ],
  "bytecode": "0x608060405234801561001057600080fd5b50336000806101000a81548173ffffffffffffffffffffffffffffffffffffffff021916908373ffffffffffffffffffffffffffffffffffffffff160217905550610749806100606000396000f3fe6080604052600436106100595760003560e01c8063481c6a75146100db5780634b07954a146101065780638209d1621461014357806389070aac1461014d578063b69ef8a814610178578063dfbf53ae146101a3576100d6565b366100d657670de0b6b3a7640000341461007257600080fd5b6001339080600181540180825580915050600190039060005260206000200160009091909190916101000a81548173ffffffffffffffffffffffffffffffffffffffff021916908373ffffffffffffffffffffffffffffffffffffffff1602179055005b600080fd5b3480156100e757600080fd5b506100f06101ce565b6040516100fd9190610579565b60405180910390f35b34801561011257600080fd5b5061012d600480360381019061012891906105cf565b6101f2565b60405161013a9190610579565b60405180910390f35b61014b610231565b005b34801561015957600080fd5b506101626102aa565b60405161016f9190610579565b60405180910390f35b34801561018457600080fd5b5061018d610477565b60405161019a919061060b565b60405180910390f35b3480156101af57600080fd5b506101b86104d8565b6040516101c59190610579565b60405180910390f35b60008054906101000a900473ffffffffffffffffffffffffffffffffffffffff1681565b6001818154811061020257600080fd5b906000526020600020016000915054906101000a900473ffffffffffffffffffffffffffffffffffffffff1681565b670de0b6b3a7640000341461024557600080fd5b6001339080600181540180825580915050600190039060005260206000200160009091909190916101000a81548173ffffffffffffffffffffffffffffffffffffffff021916908373ffffffffffffffffffffffffffffffffffffffff160217905550565b60008060009054906101000a900473ffffffffffffffffffffffffffffffffffffffff1673ffffffffffffffffffffffffffffffffffffffff163373ffffffffffffffffffffffffffffffffffffffff161461030557600080fd5b600061030f6104fe565b90506000600180549050826103249190610655565b90506001818154811061033a57610339610686565b5b9060005260206000200160009054906101000a900473ffffffffffffffffffffffffffffffffffffffff16600260006101000a81548173ffffffffffffffffffffffffffffffffffffffff021916908373ffffffffffffffffffffffffffffffffffffffff160217905550600181815481106103b9576103b8610686565b5b9060005260206000200160009054906101000a900473ffffffffffffffffffffffffffffffffffffffff1673ffffffffffffffffffffffffffffffffffffffff166108fc610405610477565b9081150290604051600060405180830381858888f19350505050158015610430573d6000803e3d6000fd5b506001818154811061044557610444610686565b5b9060005260206000200160009054906101000a900473ffffffffffffffffffffffffffffffffffffffff169250505090565b60008060009054906101000a900473ffffffffffffffffffffffffffffffffffffffff1673ffffffffffffffffffffffffffffffffffffffff163373ffffffffffffffffffffffffffffffffffffffff16146104d257600080fd5b47905090565b600260009054906101000a900473ffffffffffffffffffffffffffffffffffffffff1681565b6000444260018054905060405160200161051a939291906106d6565b6040516020818303038152906040528051906020012060001c905090565b600073ffffffffffffffffffffffffffffffffffffffff82169050919050565b600061056382610538565b9050919050565b61057381610558565b82525050565b600060208201905061058e600083018461056a565b92915050565b600080fd5b6000819050919050565b6105ac81610599565b81146105b757600080fd5b50565b6000813590506105c9816105a3565b92915050565b6000602082840312156105e5576105e4610594565b5b60006105f3848285016105ba565b91505092915050565b61060581610599565b82525050565b600060208201905061062060008301846105fc565b92915050565b7f4e487b7100000000000000000000000000000000000000000000000000000000600052601260045260246000fd5b600061066082610599565b915061066b83610599565b92508261067b5761067a610626565b5b828206905092915050565b7f4e487b7100000000000000000000000000000000000000000000000000000000600052603260045260246000fd5b6000819050919050565b6106d06106cb82610599565b6106b5565b82525050565b60006106e282866106bf565b6020820191506106f282856106bf565b60208201915061070282846106bf565b60208201915081905094935050505056fea26469706673582212208fcce067dd9cee537f5a6e294c46520f4b91ab21a34a6cc596a0ec820e3aa97a64736f6c634300080e0033",
  "immutableReferences": {},
  "source": "//SPDX-License-Identifier:MIT\r\n\r\npragma solidity ^0.8.14;\r\n\r\ncontract Lottery{\r\n\r\n    address public manager;\r\n    address[]public  participant;\r\n    address public winner;\r\n\r\n\r\n    constructor(){\r\n        manager=msg.sender;\r\n    }\r\n\r\n    receive() external payable{\r\n        require(msg.value==1 ether);\r\n        participant.push(msg.sender);\r\n\r\n    }\r\n    function lotterypart()public payable {\r\n         require(msg.value==1 ether);\r\n        participant.push(msg.sender);\r\n    }\r\n\r\n    function Random()internal view returns(uint){\r\n\r\n        return uint(keccak256(abi.encodePacked(block.difficulty,block.timestamp,participant.length)));\r\n\r\n\r\n    }\r\n\r\n    function balance()public view returns(uint){\r\n        require(msg.sender==manager);\r\n        return address(this).balance;\r\n    }\r\n\r\n    function pikwinner()public returns(address) {\r\n        require(msg.sender==manager);\r\n        uint r=Random();\r\n        uint d=r % participant.length;\r\n        winner=participant[d];\r\n\r\n        payable(participant[d]).transfer(balance());\r\n       return address(participant[d]) ;\r\n        \r\n        \r\n\r\n    }\r\n\r\n\r\n}\r\n//returns(address)\r\n// return participant[d];",
  "sourcePath": "D:\\lottery2\\truffle\\contracts\\Lottery.sol",
  "compiler": {
    "name": "solc",
    "version": "0.8.14+commit.80d49f37.Emscripten.clang"
  },
  "schemaVersion": "3.4.9",
  "updatedAt": "2022-08-22T11:29:30.859Z",
  "networkType": "ethereum",
  "devdoc": {
    "kind": "dev",
    "methods": {},
    "version": 1
  },
  "userdoc": {
    "kind": "user",
    "methods": {},
    "version": 1
  }
}